:100000000C94D5000C94FD000C94FD000C94FD00A4
:100010000C94FD000C94FD000C94FD000C94FD006C
:100020000C94FD000C94FD000C94FD000C94FD005C
:100030000C94FD000C94FD000C94FD000C94FD004C
:100040000C94E5080C94FD000C94A8010C9482011A
:100050000C94FD000C94FD000C94FD000C94FD002C
:100060000C94BB040C94FD0053797374656D206986
:100070006E697469616C697A6564202E2E2E004663
:1000800069726D77617265207665722E2000466F09
:10009000756E64206368697020504E350044696451
:1000A0006E27742066696E6420504E353378206266
:1000B0006F61726420230057656C636F6D652074F7
:1000C0006F207468652045736361706520526F6F9F
:1000D0006D205246494420476164676574210041A0
:1000E0004C4552542121212020414C45525421217C
:1000F0002120416C6C205461677320436F727265DC
:1001000063742E2041637469766174652052656C56
:1001100061792E2020414C45525421212120414C0F
:100120004552542021212100746167204944230055
:10013000466F756E6420616E2049534F31343434FC
:100140003341206361726420776974682000000085
:100150000000240027002A000000000025002800DD
:100160002B000000000023002600290004040404E2
:100170000404040402020202020203030303030351
:10018000010204081020408001020408102001022E
:10019000040810200000000800020100000304070A
:1001A0000000000000000000600C11241FBECFEF13
:1001B000D8E0DEBFCDBF11E0A0E0B1E0EEEEFBE1A4
:1001C00002C005900D92A435B107D9F723E0A4E54C
:1001D000B1E001C01D92A330B207E1F710E0C5ED18
:1001E000D0E004C02197FE010E94BB0CC43DD107A2
:1001F000C9F70E942F090C94F50D0C940000CF92C2
:10020000DF92EF92FF920F931F93CF93DF936C01D6
:100210007A018B01C0E0D0E0CE15DF0581F0D80176
:100220006D918D01D601ED91FC910190F081E02D51
:10023000C6010995892B11F02196EECF7E01C701E9
:10024000DF91CF911F910F91FF90EF90DF90CF90B2
:1002500008950E94E20D8CE492E00E940B0221E0DE
:10026000892B09F420E0822F0895EF92FF920F93DB
:100270001F93CF93DF93EC0181E0888F9B8D8C8D52
:10028000981305C0E889F989808185FD26C0F62E7E
:100290000B8D10E00F5F1F4F0F731127E02E8C8D19
:1002A000E8120CC00FB607FCFACFE889F989808103
:1002B00085FFF5CFCE010E942203F1CF8B8DFE0189
:1002C000E80FF11DE35AFF4FF0829FB7F8940B8FB0
:1002D000EA89FB89808180620AC09FB7F894EE8921
:1002E000FF896083E889F9898081837080648083D5
:1002F0009FBF81E090E0DF91CF911F910F91FF9020
:10030000EF9008951F920F920FB60F9211242F9322
:100310003F934F935F936F937F938F939F93AF938D
:10032000BF93EF93FF938CE492E00E942203FF912E
:10033000EF91BF91AF919F918F917F916F915F915D
:100340004F913F912F910F900FBE0F901F901895D6
:100350001F920F920FB60F9211242F938F939F939A
:10036000EF93FF93E0915C02F0915D028081E09158
:100370006202F091630282FD12C090818091650259
:100380008F5F8F7320916602821751F0E0916502B2
:10039000F0E0E45BFD4F958F8093650201C08081A2
:1003A000FF91EF919F918F912F910F900FBE0F9022
:1003B0001F901895FC01538D448D252F30E0842F1C
:1003C00090E0821B930B541710F0CF96089501977D
:1003D0000895FC01918D828D981761F0828DDF0167
:1003E000A80FB11D5D968C91928D9F5F9F73928F28
:1003F00090E008958FEF9FEF0895FC01918D828D1D
:10040000981731F0828DE80FF11D858D90E00895E9
:100410008FEF9FEF0895FC01918D228D892F90E041
:10042000805C9F4F821B91098F739927089580E00C
:1004300090E0892B29F00E942B0181110C9400007F
:10044000089585ED8093BC008091BC0084FDFCCFB5
:100450001092E801089540917F01262F30E0240F8B
:10046000311D21323105DCF42091E8012430C9F43A
:10047000FC0180E090E0861758F430917F012191D3
:10048000DC01A15ABE4FA30FB11D2C930196F3CFEF
:1004900080917F01680F60937F0180E0089581E083
:1004A000089582E00895089508950895E09159010E
:1004B00080915801E81730F4F0E0EE55FE4F80814E
:1004C00090E008958FEF9FEF0895909159018091EA
:1004D0005801981750F4E92FF0E0EE55FE4F2081B7
:1004E00030E09F5F9093590102C02FEF3FEFC901A9
:1004F00008958091580190E020915901821B910943
:100500000895CF92DF92EF92FF920F931F93CF93B4
:10051000DF937C01CB018A0120910B02222389F019
:10052000EB016B01C40ED51ECC15DD0569F0699198
:10053000D701ED91FC910190F081E02DC701099563
:10054000F3CF642F0E942B02C801DF91CF911F913E
:100550000F91FF90EF90DF90CF900895CF93DF93AE
:100560001F92CDB7DEB7698320910B022223D1F011
:1005700020910902203240F021E030E0FC01338379
:10058000228380E090E015C080910A02E82FF0E01D
:10059000E751FE4F998190838F5F80930A02809389
:1005A000090205C061E0CE0101960E942B0281E0A4
:1005B00090E00F90DF91CF910895089580E090E052
:1005C0000895CF92DF92EF92FF921F93CF93DF9324
:1005D000FC012689222339F01EBC00000DB407FE61
:1005E000FDCF1EB526C0EC0161E081810E94FD06B1
:1005F000E12CF12C10E0CC24C394D12C8B810E94EF
:10060000D406892B39F0C6010E2C01C0880F0A943C
:10061000EAF7182B60E089810E94FD0661E089817C
:100620000E94FD06FFEFEF1AFF0A88E0E816F104CA
:1006300029F7812FDF91CF911F91FF90EF90DF90ED
:10064000CF900895FC01848DDF01A80FB11DA35A3E
:10065000BF4F2C91848D90E001968F739927848FE2
:10066000A689B7892C93A089B1898C918370806405
:100670008C93938D848D981306C00288F389E02DA6
:1006800080818F7D80830895CF93DF93EC01888DE7
:100690008823C9F0EA89FB89808185FD05C0A88986
:1006A000B9898C9186FD0FC00FB607FCF5CF80810C
:1006B00085FFF2CFA889B9898C9185FFEDCFCE0156
:1006C0000E942203E7CFDF91CF910895EF92FF922E
:1006D0000F931F93CF93DF93FC012689222339F0D8
:1006E0006EBD00000DB407FEFDCF8EB527C0062FEE
:1006F000EC0161E081810E94FD06E12CF12C10E00B
:1007000060E089810E94FD06C8010E2C02C095950B
:1007100087950A94E2F780FF02C061E001C060E0C3
:100720008A810E94FD0661E089810E94FD06FFEF3B
:10073000EF1AFF0A88E0E816F10411F7DF91CF9174
:100740001F910F91FF90EF900895682F89EE92E02E
:100750000C94AE0208958CBD9DBD0895DF92EF927A
:10076000FF920F931F93CF93DF93EC01D62EE72ECA
:10077000F42E8D898823B1F18E89882321F081E7B9
:1007800090E00E94AB0360E088810E94FD0662E079
:1007900070E080E090E00E94680763E0CE010E9474
:1007A00066030D2D1E2DC8018F0D911D7C010E15A8
:1007B0001F0569F061E070E080E090E00E9468074A
:1007C000CE010E94E102F80181938F01F0CF61E038
:1007D0008881DF91CF911F910F91FF90EF90DF9073
:1007E0000C94FD0662E070E080E090E00E946807F3
:1007F0008091E8018111FCCF82E08F0D813208F0F9
:1008000080E291E09093E8019093E7012FEF20932D
:10081000E6011092E501280F2093E4019093C301B3
:100820009091C30198649093C3019091C20191305B
:1008300061F41092C2019091C3019093BB0090911A
:10084000BC0093FDF8CF95EC01C095EE9093BC00F1
:100850009091E8019130E1F39091E501981710F43F
:100860008091E501E4ECF1E0A2EAB1E090E09817B4
:1008700021F021912D939F5FFACF1092590190930F
:10088000580189EE92E00E946502CD2DDE2D8E0189
:100890000F0D111DC017D10761F061E070E080E01D
:1008A00090E00E94680789EE92E00E9465028993B9
:1008B000F1CFDF91CF911F910F91FF90EF90DF90DB
:1008C0000895CF92DF92EF92FF920F931F93CF93F1
:1008D000DF93EC016B01E12CF12C8D89882309F168
:1008E0008E89882321F081E790E00E94AB0360E0CD
:1008F00088810E94FD0662E070E080E090E00E9446
:10090000680762E0CE010E946603CE010E94E10208
:10091000082F61E088810E94FD0611E0013039F462
:1009200020C08C810E94D40611E08823D1F010E011
:10093000C114D10479F08AE0E80EF11CCE14DF0472
:1009400048F48BE491E00E9437068FE391E00E9427
:10095000370607C06AE070E080E090E00E94680718
:10096000BCCF812FDF91CF911F910F91FF90EF901E
:10097000DF90CF9008951F920F920FB60F9211241F
:100980002F933F934F935F936F937F938F939F9397
:10099000AF93BF93EF93FF938091B900887F803628
:1009A00009F49CC068F5883209F45BC090F480318A
:1009B00009F454C038F4882309F4F6C0883009F4E7
:1009C0004DC0F6C0883109F44CC0803209F45DC0D6
:1009D000EFC0803409F468C048F4803309F455C08E
:1009E000883309F0E5C08093E601D8C0803509F46A
:1009F0004FC0883509F45DC0883409F0D9C0D6C02D
:100A0000883909F4C7C0A8F4883709F467C038F4F6
:100A1000883609F463C0803709F460C0C9C08838DB
:100A200009F4B8C0803909F45FC0803809F0C0C04B
:100A30005BC0803B09F486C038F4803A09F466C094
:100A4000883A09F47FC0B4C0803C09F4A7C0883C50
:100A500009F4A4C0883B09F48AC0AAC08091C301EC
:100A600010C09091E5018091E401981770F5E09134
:100A7000E50181E08E0F8093E501F0E0EC53FE4F3D
:100A800080818093BB0085EC86C08093E6018EC098
:100A9000E091E50181E08E0F8093E5018091BB003C
:100AA000F0E0EC53FE4F80839091E5018091E401EA
:100AB0006EC0E091E50181E08E0F8093E5018091A9
:100AC000BB00F0E0EC53FE4F80838091E701811181
:100AD0006DC081E08093C20184EA61C083E08093AD
:100AE000E8011092A101CFCF8091A101803208F0DE
:100AF00051C0E091A10181E08E0F8093A10180910E
:100B0000BB00F0E0EF57FE4F8083BDCF85EC8093B4
:100B1000BC001092E8018091A101803230F4E09194
:100B2000A101F0E0EF57FE4F10826091A10170E04B
:100B3000E0915401F091550181E891E009951092FE
:100B4000A10136C084E08093E801109280011092E8
:100B50007F01E0915601F0915701099580917F0145
:100B6000811105C081E080937F0110925F01E091C7
:100B7000800181E08E0F80938001F0E0E15AFE4F0A
:100B800080818093BB009091800180917F019817B4
:100B900008F479CF85E88093BC000AC085EC809387
:100BA000BC001092E80104C01092E6010E942102EC
:100BB000FF91EF91BF91AF919F918F917F916F9135
:100BC0005F914F913F912F910F900FBE0F901F900B
:100BD0001895833081F028F4813099F08230A1F0AB
:100BE00008958730A9F08830B9F08430D1F480912D
:100BF00080008F7D03C0809180008F77809380007C
:100C0000089584B58F7702C084B58F7D84BD089523
:100C10008091B0008F7703C08091B0008F7D80936A
:100C2000B00008953FB7F8948091FA029091FB02CA
:100C3000A091FC02B091FD0226B5A89B05C02F3FF4
:100C400019F00196A11DB11D3FBFBA2FA92F982FF2
:100C50008827820F911DA11DB11DBC01CD0142E06D
:100C6000660F771F881F991F4A95D1F7089500973F
:100C700069F0FC0101900020E9F73197AF01481BB2
:100C8000590BBC018CE492E00C94FF0080E090E0F2
:100C900008950F931F93CF93DF938C01C0E0D0E0B2
:100CA000F801EC0FFD1F6491662341F08CE492E0A3
:100CB0000E943501892B11F02196F2CFCE01DF91F0
:100CC000CF911F910F910895CF93DF930E94490612
:100CD000EC018FE391E00E9437068C0F9D1FDF919E
:100CE000CF9108958F929F92AF92BF920F931F93CF
:100CF000CF93DF93CDB7DEB7A1970FB6F894DEBFE1
:100D00000FBECDBF19A2423008F44AE08E010F5D3C
:100D10001F4F842E912CA12CB12CA50194010E946F
:100D2000990CE62FB901CA0101501109EA3014F4F7
:100D3000E05D01C0E95CD801EC93232B242B252B2B
:100D400061F7C8010E943706A1960FB6F894DEBF7E
:100D50000FBECDBFDF91CF911F910F91BF90AF908C
:100D60009F908F900895CF92DF92EF92FF92CF9352
:100D7000DF936B017C016DE28CE492E00E9435010F
:100D8000EC0166277727CB016C197D098E099F0935
:100D90004AE00E9472068C0F9D1FDF91CF91FF9059
:100DA000EF90DF90CF900895CF93DF93282F30E01E
:100DB000F901EC56FE4F8491F901E058FE4FD491B1
:100DC000F901E459FE4FC491CC2391F081110E94A6
:100DD000E905EC2FF0E0EE0FFF1FEE59FE4FA59155
:100DE000B491EC91ED2381E090E021F480E002C029
:100DF00080E090E0DF91CF9108951F93CF93DF9330
:100E0000282F30E0F901EC56FE4F8491F901E058AB
:100E1000FE4FD491F901E459FE4FC491CC23C1F0A7
:100E2000162F81110E94E905EC2FF0E0EE0FFF1F55
:100E3000E85AFE4FA591B4919FB7F894111104C0E0
:100E40008C91D095D82302C0EC91DE2BDC939FBF10
:100E5000DF91CF911F910895CF93DF9390E0FC0134
:100E6000E058FE4F2491FC01E459FE4F8491882301
:100E700061F190E0880F991FFC01E25BFE4FC59184
:100E8000D491FC01E85AFE4FA591B491611109C0BB
:100E90009FB7F8948881209582238883EC912E2334
:100EA0000BC0623061F49FB7F8948881322F30957F
:100EB00083238883EC912E2B2C939FBF06C08FB782
:100EC000F894E8812E2B28838FBFDF91CF9108956E
:100ED0008F929F92AF92BF92CF92DF92EF92FF924A
:100EE0006B017C010E9412064B015C01C114D1040C
:100EF000E104F104F1F00E941206DC01CB01881933
:100F00009909AA09BB09883E9340A105B10570F370
:100F100021E0C21AD108E108F10888EE880E83E0CA
:100F2000981EA11CB11CC114D104E104F10419F7ED
:100F3000DDCFFF90EF90DF90CF90BF90AF909F906C
:100F40008F9008958F929F92AF92BF92CF92DF922F
:100F5000EF92FF920F931F93CF93DF9300D000D0B7
:100F600000D0CDB7DEB78C016A01FC018589EE2483
:100F7000E394E60E882309F45FC08689882321F074
:100F800081E790E00E94AB0360E0F80180810E945D
:100F9000FD0662E070E080E090E00E94680761E09A
:100FA000C8010E94660360E0C8010E94660360E019
:100FB000C8010E9466036FEFC8010E9466036E2D90
:100FC000C8010E9466036E2D6195C8010E946603E8
:100FD00064EDC8010E946603A12C93EDB92EF12C9B
:100FE000F1E0EF1AF1088A2D90E08E159F0574F458
:100FF0009C01245F3D4F4901F9016081C8010E94B5
:101000006603F4018081B80EA394EDCF6B2D60953B
:10101000C8010E94660360E0C8010E94660361E0A7
:10102000F80180810E94FD06F8018689882309F471
:1010300095C00E94AA0392C062E070E080E090E058
:101040000E94680781E080930B0284E28093FE0295
:1010500010920A021092090280E00E94A50380E02B
:101060000E94A5038FEF0E94A5038E2D0E94A50369
:101070008E2D81950E94A50384ED0E94A503812CED
:1010800083ED982EF12CF1E0EF1AF108882D90E015
:101090008E159F056CF49C01245F3D4F5901F901A9
:1010A00080810E94A503F5018081980E8394EECF84
:1010B000892D80950E94A50380E00E94A503909150
:1010C0000902913208F044C08091E8018111FCCFFF
:1010D00082E08093E80181E08093E7018FEF8093C5
:1010E000E6011092E5019093E401E9EEF1E0A4EC51
:1010F000B1E080E0981721F021912D938F5FFACF16
:101100001092C3018091C30188648093C3018091D0
:10111000C201813061F41092C2018091C3018093B9
:10112000BB008091BC0083FDF8CF85EC01C085EE4B
:101130008093BC008091E8018230E1F38091E60168
:101140008F3F31F08091E601803211F08091E6010D
:1011500010920A021092090210920B02B601C80105
:101160000E946104F82E811102C0F12C1AC046E0E1
:10117000BE016F5F7F4FC8010E94AE0346E050E0A2
:1011800067E071E0CE0101960E94E70D892B69F7B7
:10119000F8018589882329F0B601C8010E946104FD
:1011A000F82E8F2D26960FB6F894DEBF0FBECDBF5A
:1011B000DF91CF911F910F91FF90EF90DF90CF9033
:1011C000BF90AF909F908F9008951F920F920FB68F
:1011D0000F9211242F933F938F939F93AF93BF93BD
:1011E0008091F6029091F702A091F802B091F90275
:1011F0003091F50223E0230F2D3720F40196A11D35
:10120000B11D05C026E8230F0296A11DB11D209334
:10121000F5028093F6029093F702A093F802B09340
:10122000F9028091FA029091FB02A091FC02B09128
:10123000FD020196A11DB11D8093FA029093FB025D
:10124000A093FC02B093FD02BF91AF919F918F914B
:101250003F912F910F900FBE0F901F901895CF9335
:10126000DF93CDB7DEB72F970FB6F894DEBF0FBE72
:10127000CDBF789484B5826084BD84B5816084BD1F
:1012800085B5826085BD85B5816085BD80916E0024
:10129000816080936E001092810080918100826055
:1012A0008093810080918100816080938100809192
:1012B00080008160809380008091B1008460809381
:1012C000B1008091B00081608093B00080917A007D
:1012D000846080937A0080917A00826080937A00A3
:1012E00080917A00816080937A0080917A00806892
:1012F00080937A001092C100E0915C02F0915D024F
:1013000082E08083E0915802F09159021082E091CE
:101310005A02F0915B0280E1808310926402E091B6
:101320006002F091610286E08083E0915E02F091BC
:101330005F02808180618083E0915E02F0915F02B4
:10134000808188608083E0915E02F0915F028081FD
:1013500080688083E0915E02F0915F0280818F7DE2
:10136000808387EB90E00E94640693E1692E91E010
:10137000792E2BE5C22E21E0D22E812C912C540106
:10138000FF24F39432E0E32E87E190E00E94C10C49
:101390008C01F3018081F4E06F0E711CF8018083F1
:1013A0002DE021833BE032839CE0938314821582FD
:1013B000F58A168A61E00E942C0761E0F8018081BD
:1013C0000E94FD0661E0F80181810E942C0761E026
:1013D000F80182810E942C0760E0F80183810E945D
:1013E0002C07F60111830083F8018589882309F40D
:1013F0005BC08689882309F437C05FB6F894809172
:101400005A01811127C0E6E7F1E08491EAE8F1E0B2
:101410009491E82FF0E0EE0FFF1FE25BFE4FA591E5
:10142000B4918C91982321F461E08AE00E94FD063A
:1014300061E08AE00E942C078CB580618CBD8CB580
:1014400080648CBD61E08DE00E942C0761E08BE040
:101450000E942C0780915A018F5F80935A015FBED2
:1014600081E790E00E94AB0360E0F80180810E9478
:10147000FD0668EE73E080E090E00E946807E0926D
:101480000C0248EE53E061E0C8010E94A20761E04F
:10149000F80180810E94FD06F8018689882309F4FD
:1014A00050C00E94AA034DC01092590110925801D9
:1014B00010920A02109209021092E801F092E701DC
:1014C0001092C20161E082E10E94FD0661E083E1C9
:1014D0000E94FD068091B9008E7F8093B9008091B3
:1014E000B9008D7F8093B900F8E4F093B80085E4EB
:1014F0008093BC0023E532E03093570120935601DE
:1015000084E592E0909355018093540161E0F801E5
:1015100085810E94FD0660E0F80185810E94FD063C
:1015200060E971E080E090E00E94680761E0F80106
:1015300085810E94FD066AE070E080E090E00E94F4
:101540006807F60100811181E0920C0248EE53E039
:1015500061E0C8010E94A207811104C0212C312C36
:1015600021013CC04CE06CE072E0C8010E94AE0377
:1015700046E050E060E071E08CE092E00E94E70D10
:10158000892B61F7F8018589882319F0E6E0F0E0FE
:1015900002C0E7E0F0E0E45FFD4F2080822D90E0A4
:1015A000A0E0B0E04427582F692F7A2F81818A016B
:1015B0009B01082BD901C8014427582F692F7A2F86
:1015C00082818A019B01082BD901C8014427582F29
:1015D000692F7A2F83811A012B01282A8DE990E047
:1015E0000E9449064AE0C501B4010E9472068FE3D9
:1015F00091E00E9437061FE0211617E231064104F0
:10160000510409F49ECF8EE890E00E944906652DB2
:1016100077278827992740E10E9472068FE391E09F
:101620000E9437068FE790E00E944906642D70E023
:1016300080E090E04AE00E9472066EE28CE492E064
:101640000E943501632D70E080E090E04AE00E9446
:1016500072068FE391E00E943706F6010081118146
:1016600084E180930C02F0920D0280930E02F092BE
:101670000F0248EE53E064E0C8010E94A2078823ED
:1016800031F048E06CE072E0C8010E94AE03F60160
:10169000819191916F0122E320930C02F5E0F09388
:1016A0000D022FEF20930E02F0920F02F092100223
:1016B00048EE53E065E00E94A2070FEF801A900AFF
:1016C000A00AB00A12E081169104A104B10409F045
:1016D0005BCE61E083E00E942C0761E082E00E9423
:1016E0002C0761E084E00E942C0761E083E00E9407
:1016F0002C0760E083E00E94FD0660E082E00E942B
:10170000FD0661E084E00E94FD0688E690E00E940C
:1017100064067E0129E0E20EF11C80910601882317
:1017200009F4A7C019821A821B821C821D821E82A4
:101730001F821886CE0101966C014BE5242E41E0F4
:10174000342E412C512C3201F70107E011920A95F9
:10175000E9F782E491E00E9437064AE0C301B20152
:101760000E9472068FE391E00E943706F101019119
:1017700011911F01FAE4F0930C0221E020930D0275
:1017800010920E0240E050E063E0C8010E94A20700
:10179000882309F491C0F8018589882389F044E100
:1017A0006CE072E0C8010E94AE03809113028130A8
:1017B00009F082C010911802A9E1B2E0F70108C057
:1017C00060E070E0C8010E9461048111E8CF74C03C
:1017D0008E2F8E19811718F48D918193F9CF80E3A4
:1017E00091E00E944906143009F066C089859A8507
:1017F000982789279827A0E0B0E0BA2FA92F982F23
:1018000088272B85822BBA2FA92F982F88272C85E4
:101810004C015D01822A88E291E00E9449064AE07B
:10182000C501B4010E9472068FE391E00E94370661
:10183000F60181929192A192B1926F0168EE73E0EC
:1018400080E090E00E946807FFEF4F1A5F0A6F0A7E
:101850007F0A02E0401651046104710409F074CF5C
:101860008D819E81AF81B8858E3B9C44A74AB54D42
:1018700019F00E94170251CF89819A81AB81BC81F6
:10188000883F9446A44DB64EA1F78FED90E00E949C
:10189000640661E083E00E942C0761E083E00E941F
:1018A000FD0661E082E00E94FD0660E084E00E94A7
:1018B000FD0610920601DDCF812C912C5401ABCF97
:1018C000ECE4F2E01382128288EE93E0A0E0B0E054
:1018D00084839583A683B7832FE131E0318320830E
:1018E00025EC30E03587248724EC30E037872687E5
:1018F00020EC30E0318B208B21EC30E0338B228BDD
:1019000022EC30E0358B248B26EC30E0378B268BB5
:10191000118E128E138E148EE9EEF2E01382128273
:1019200084839583A683B78381E391E09183808349
:101930000895A1E21A2EAA1BBB1BFD010DC0AA1F10
:10194000BB1FEE1FFF1FA217B307E407F50720F028
:10195000A21BB30BE40BF50B661F771F881F991FA3
:101960001A9469F760957095809590959B01AC01EC
:10197000BD01CF010895EE0FFF1F0590F491E02DFA
:1019800009940F931F93CF93DF938230910510F446
:1019900082E090E0E0910103F091020320E030E06A
:1019A000A0E0B0E0309719F14081518102811381AC
:1019B00048175907C8F08417950769F4109731F054
:1019C00012960C93129713961C9327C00093010351
:1019D0001093020322C02115310519F04217530755
:1019E00018F49A01BD01EF01DF01F801DBCF2115E9
:1019F0003105F9F0281B390B2430310580F48A8138
:101A00009B816115710521F0FB019383828304C0E2
:101A10009093020380930103FE01329644C0FE01BD
:101A2000E20FF31F81939193225031093983288368
:101A30003AC02091FF0230910003232B41F4209102
:101A40000F0130911001309300032093FF02209189
:101A50000D0130910E012115310541F42DB73EB72E
:101A60004091110150911201241B350BE091FF02AE
:101A7000F0910003E217F307A0F42E1B3F0B281789
:101A8000390778F0AC014E5F5F4F2417350748F0F7
:101A90004E0F5F1F509300034093FF028193919379
:101AA00002C0E0E0F0E0CF01DF91CF911F910F91F4
:101AB0000895CF93DF93009709F481C0FC0132971A
:101AC00013821282A0910103B0910203109781F456
:101AD00020813181820F931F2091FF0230910003FA
:101AE0002817390751F5F0930003E093FF0267C010
:101AF000ED0120E030E0CE17DF0740F44A815B8142
:101B00009E0141155105F1F0EA01F5CFD383C2835F
:101B100040815181840F951FC817D90759F48881D6
:101B20009981840F951F0296918380838A819B817E
:101B3000938382832115310529F4F0930203E09306
:101B400001033DC0E901FB83EA8349915991C40F28
:101B5000D51FEC17FD0761F480819181840F951FDB
:101B60000296E90199838883828193819B838A838A
:101B7000E0E0F0E012968D919C911397009719F098
:101B8000FD01DC01F7CF8D919C9111979D012E5F96
:101B90003F4F820F931F2091FF02309100032817BF
:101BA000390769F4309729F4109202031092010367
:101BB00002C013821282B0930003A093FF02DF9150
:101BC000CF91089581E090E0F8940C94F50DFB011D
:101BD000DC014150504030F08D910190801919F492
:0E1BE0000020B9F7881B990B0895F894FFCFE9
:101BEE0000FF06FAD503010000FF00FF000000030E
:101BFE000380000800000007000000000000003510
:101C0E0001FF00DA0144030B02E901FD01000000AF
:101C1E0000AE028102DE0255027902650256020D05
:101C2E000A0052454144455220230054494D454F28
:041C3E0055542100D8
:107E0000112484B714BE81FFF0D085E080938100F7
:107E100082E08093C00088E18093C10086E0809377
:107E2000C20080E18093C4008EE0C9D0259A86E02C
:107E300020E33CEF91E0309385002093840096BBD3
:107E4000B09BFECF1D9AA8958150A9F7CC24DD24C4
:107E500088248394B5E0AB2EA1E19A2EF3E0BF2EE7
:107E6000A2D0813461F49FD0082FAFD0023811F036
:107E7000013811F484E001C083E08DD089C08234E0
:107E800011F484E103C0853419F485E0A6D080C0E4
:107E9000853579F488D0E82EFF2485D0082F10E0AE
:107EA000102F00270E291F29000F111F8ED06801E7
:107EB0006FC0863521F484E090D080E0DECF843638
:107EC00009F040C070D06FD0082F6DD080E0C81688
:107ED00080E7D80618F4F601B7BEE895C0E0D1E017
:107EE00062D089930C17E1F7F0E0CF16F0E7DF06D8
:107EF00018F0F601B7BEE89568D007B600FCFDCFD4
:107F0000A601A0E0B1E02C9130E011968C91119780
:107F100090E0982F8827822B932B1296FA010C0160
:107F200087BEE89511244E5F5F4FF1E0A038BF0790
:107F300051F7F601A7BEE89507B600FCFDCF97BE46
:107F4000E89526C08437B1F42ED02DD0F82E2BD052
:107F50003CD0F601EF2C8F010F5F1F4F84911BD097
:107F6000EA94F801C1F70894C11CD11CFA94CF0C13
:107F7000D11C0EC0853739F428D08EE10CD085E9AC
:107F80000AD08FE07ACF813511F488E018D01DD067
:107F900080E101D065CF982F8091C00085FFFCCF94
:107FA0009093C60008958091C00087FFFCCF809118
:107FB000C00084FD01C0A8958091C6000895E0E648
:107FC000F0E098E1908380830895EDDF803219F02E
:107FD00088E0F5DFFFCF84E1DECF1F93182FE3DFCA
:107FE0001150E9F7F2DF1F91089580E0E8DFEE27F6
:047FF000FF270994CA
:027FFE00040479
:0400000300007E007B
:00000001FF
